{
  "contractName": "AZTECBase",
  "abi": [
    {
      "constant": true,
      "inputs": [
        {
          "name": "input",
          "type": "uint256"
        }
      ],
      "name": "test",
      "outputs": [
        {
          "name": "blah",
          "type": "bool"
        }
      ],
      "payable": false,
      "stateMutability": "pure",
      "type": "function"
    }
  ],
  "bytecode": "0x608060405234801561001057600080fd5b5060be8061001f6000396000f300608060405260043610603f576000357c0100000000000000000000000000000000000000000000000000000000900463ffffffff16806329e99f07146044575b600080fd5b348015604f57600080fd5b50606c600480360381019080803590602001909291905050506086565b604051808215151515815260200191505060405180910390f35b600080821190509190505600a165627a7a7230582024d24d5c9d5f6a22f71e9c52c56efc0d75fc3da1aadd51b00191b0af27f890ce0029",
  "source": "pragma solidity ^0.4.23;\n\n/// @title Library to validate AZTEC zero-knowledge proofs\n/// @author CreditMint\n/// @dev All methods should act as pure functions, however the compile does not distinguish\n/// @dev between precompile contracts and real contracts, so methods that implement\n/// @dev staticcall to bn128 precompiles must be declared view\n\ncontract AZTECBase {\n\n    /// @dev documentation test\n    function test(uint input) pure returns (bool blah) {\n        blah = input > 0;\n    }\n}",
  "sourcePath": "/mnt/c/Users/zacha/CreditMint/Projects/smart-contracts/contracts/AZTEC/AZTECBase.sol",
  "compiler": {
    "name": "solc",
    "version": "0.4.23+commit.124ca40d.Emscripten.clang"
  },
  "schemaVersion": "2.0.0",
  "updatedAt": "2018-08-29T12:46:21.058Z"
}