{
  "contractName": "NizkEth",
  "abi": [
    {
      "constant": true,
      "inputs": [
        {
          "name": "",
          "type": "bytes32"
        }
      ],
      "name": "noteRegistry",
      "outputs": [
        {
          "name": "",
          "type": "uint256"
        }
      ],
      "payable": false,
      "stateMutability": "view",
      "type": "function"
    },
    {
      "constant": true,
      "inputs": [
        {
          "name": "",
          "type": "uint256"
        }
      ],
      "name": "setupPubKey",
      "outputs": [
        {
          "name": "",
          "type": "bytes32"
        }
      ],
      "payable": false,
      "stateMutability": "view",
      "type": "function"
    },
    {
      "inputs": [
        {
          "name": "_setupPubKey",
          "type": "bytes32[4]"
        }
      ],
      "payable": false,
      "stateMutability": "nonpayable",
      "type": "constructor"
    },
    {
      "anonymous": false,
      "inputs": [
        {
          "indexed": false,
          "name": "inputNote",
          "type": "bytes32[3]"
        },
        {
          "indexed": false,
          "name": "outputNoteA",
          "type": "bytes32[3]"
        },
        {
          "indexed": false,
          "name": "outputNoteB",
          "type": "bytes32[3]"
        }
      ],
      "name": "SplitTransaction",
      "type": "event"
    },
    {
      "anonymous": false,
      "inputs": [
        {
          "indexed": false,
          "name": "inputNoteA",
          "type": "bytes32[3]"
        },
        {
          "indexed": false,
          "name": "inputNoteB",
          "type": "bytes32[3]"
        },
        {
          "indexed": false,
          "name": "outputNote",
          "type": "bytes32[3]"
        }
      ],
      "name": "JoinTransaction",
      "type": "event"
    },
    {
      "anonymous": false,
      "inputs": [
        {
          "indexed": false,
          "name": "note",
          "type": "bytes32[3]"
        },
        {
          "indexed": false,
          "name": "value",
          "type": "uint256"
        }
      ],
      "name": "RedeemTransaction",
      "type": "event"
    },
    {
      "anonymous": false,
      "inputs": [
        {
          "indexed": false,
          "name": "note",
          "type": "bytes32[3]"
        },
        {
          "indexed": false,
          "name": "value",
          "type": "uint256"
        }
      ],
      "name": "CommitTransaction",
      "type": "event"
    },
    {
      "constant": false,
      "inputs": [
        {
          "name": "",
          "type": "bytes32[6]"
        },
        {
          "name": "k",
          "type": "uint256"
        },
        {
          "name": "",
          "type": "bytes32[2]"
        }
      ],
      "name": "redeemNote",
      "outputs": [
        {
          "name": "",
          "type": "bool"
        }
      ],
      "payable": false,
      "stateMutability": "nonpayable",
      "type": "function"
    },
    {
      "constant": false,
      "inputs": [
        {
          "name": "",
          "type": "bytes32[4]"
        }
      ],
      "name": "commitNote",
      "outputs": [
        {
          "name": "",
          "type": "bool"
        }
      ],
      "payable": true,
      "stateMutability": "payable",
      "type": "function"
    },
    {
      "constant": false,
      "inputs": [
        {
          "name": "",
          "type": "bytes32[22]"
        }
      ],
      "name": "joinNotes",
      "outputs": [
        {
          "name": "",
          "type": "bool"
        }
      ],
      "payable": false,
      "stateMutability": "nonpayable",
      "type": "function"
    },
    {
      "constant": false,
      "inputs": [
        {
          "name": "",
          "type": "bytes32[34]"
        }
      ],
      "name": "splitNote",
      "outputs": [
        {
          "name": "",
          "type": "bool"
        }
      ],
      "payable": false,
      "stateMutability": "nonpayable",
      "type": "function"
    }
  ],
  "bytecode": "0x608060405234801561001057600080fd5b50604051608080610dd58339810180604052810190809190505080600090600461003b92919061005d565b506001600560006101000a81548160ff021916908315150217905550506100c8565b8260048101928215610092579160200282015b82811115610091578251829060001916905591602001919060010190610070565b5b50905061009f91906100a3565b5090565b6100c591905b808211156100c15760008160009055506001016100a9565b5090565b90565b610cfe806100d76000396000f300608060405260043610610078576000357c0100000000000000000000000000000000000000000000000000000000900463ffffffff16806301f635a31461007d5780632a8cdfbb146100d657806338242b6f1461011b57806339b7380414610164578063d041c12d146101aa578063f750c743146101e2575b600080fd5b34801561008957600080fd5b506100bc6004803603810190808060c0019091929192908035906020019092919080604001909192919290505050610228565b604051808215151515815260200191505060405180910390f35b3480156100e257600080fd5b506101056004803603810190808035600019169060200190929190505050610409565b6040518082815260200191505060405180910390f35b34801561012757600080fd5b5061014660048036038101908080359060200190929190505050610421565b60405180826000191660001916815260200191505060405180910390f35b34801561017057600080fd5b50610190600480360381019080806102c00190919291929050505061043b565b604051808215151515815260200191505060405180910390f35b6101c8600480360381019080806080019091929192905050506106da565b604051808215151515815260200191505060405180910390f35b3480156101ee57600080fd5b5061020e6004803603810190808061044001909192919290505050610894565b604051808215151515815260200191505060405180910390f35b600080610233610c8c565b6000600560009054906101000a900460ff16151561025057600080fd5b6127108610151561026057600080fd5b662386f26fc10000860292508160e081016040527f814fba660000000000000000000000000000000000000000000000000000000081523360048201526101206004602483013760e0816101448373__NizkInterfaceLibrary__________________600019fa600182511415811517156102e15761019060005260206000fd5b60208201935060c084209250505060016004600083600019166000191681526020019081526020016000205414151561031957600080fd5b6000600460008360001916600019168152602001908152602001600020819055507f28ca151e554bb0f41163e25fddbca586b3256b9176938f73c5c5c3bfe3a086e361036483610b60565b846040518083600360200280838360005b83811015610390578082015181840152602081019050610375565b505050509050018281526020019250505060405180910390a16000831415156103fb573373ffffffffffffffffffffffffffffffffffffffff166108fc849081150290604051600060405180830381858888f193505050501580156103f9573d6000803e3d6000fd5b505b600193505050509392505050565b60046020528060005260406000206000915090505481565b60008160048110151561043057fe5b016000915090505481565b6000610445610c8c565b61044d610c8c565b610455610c8c565b6000806000600560009054906101000a900460ff16151561047557600080fd5b8561026081016040527facc8cecd0000000000000000000000000000000000000000000000000000000081523360048201526102c060046024830137610260816102e48373__NizkInterfaceLibrary__________________600019fa600182511415811517156104ec5761019060005260206000fd5b60208201975060e0820196506101a08201955060c08820945060c08720935060c086209250505060016004600085600019166000191681526020019081526020016000205414151561053d57600080fd5b60016004600084600019166000191681526020019081526020016000205414151561056757600080fd5b60006004600083600019166000191681526020019081526020016000205414151561059157600080fd5b6000600460008560001916600019168152602001908152602001600020819055506000600460008460001916600019168152602001908152602001600020819055506001600460008360001916600019168152602001908152602001600020819055507fad6304685b3134172ed85f13f5dfc92a598b820ad0f1ff8441194c732b17886761061e87610b60565b61062787610b60565b61063087610b60565b6040518084600360200280838360005b8381101561065b578082015181840152602081019050610640565b5050505090500183600360200280838360005b8381101561068957808201518184015260208101905061066e565b5050505090500182600360200280838360005b838110156106b757808201518184015260208101905061069c565b50505050905001935050505060405180910390a160019650505050505050919050565b6000806106e5610c8c565b6000662386f26fc10000348115156106f957fe5b049250662386f26fc1000083023414151561071357600080fd5b6127108310151561072357600080fd5b600560009054906101000a900460ff16151561073e57600080fd5b8160e081016040527f91036ec800000000000000000000000000000000000000000000000000000000815233600482015260406004602483013783606482015260406044608483013760e08160c48373__NizkInterfaceLibrary__________________600019fa600182511415811517156107c05761019060005260206000fd5b60208201935060c08420925050506000600460008360001916600019168152602001908152602001600020541415156107f857600080fd5b6001600460008360001916600019168152602001908152602001600020819055507fe36ab9b2996145ed4a29b568470470ada095265fa9d9d83d241efe3da0cae46b61084383610b60565b346040518083600360200280838360005b8381101561086f578082015181840152602081019050610854565b505050509050018281526020019250505060405180910390a160019350505050919050565b600061089e610c8c565b6108a6610c8c565b6108ae610c8c565b6000806000600560009054906101000a900460ff1615156108ce57600080fd5b8561026081016040527f75d34641000000000000000000000000000000000000000000000000000000008152336004820152610440600460248301376000546104648201526001600001546104848201526002600001546104a48201526003600001546104c4820152610260816104e48373__NizkInterfaceLibrary__________________600019fa600182511415811517156109725761019060005260206000fd5b60208201975060e0820196506101a08201955060c08820945060c08720935060c08620925050506001600460008560001916600019168152602001908152602001600020541415156109c357600080fd5b6000600460008460001916600019168152602001908152602001600020541415156109ed57600080fd5b600060046000836000191660001916815260200190815260200160002054141515610a1757600080fd5b6000600460008560001916600019168152602001908152602001600020819055506001600460008460001916600019168152602001908152602001600020819055506001600460008360001916600019168152602001908152602001600020819055507f80538cf55739628d2e9e000619828158b63c62579973447abe4e2fa17c83c971610aa487610b60565b610aad87610b60565b610ab687610b60565b6040518084600360200280838360005b83811015610ae1578082015181840152602081019050610ac6565b5050505090500183600360200280838360005b83811015610b0f578082015181840152602081019050610af4565b5050505090500182600360200280838360005b83811015610b3d578082015181840152602081019050610b22565b50505050905001935050505060405180910390a160019650505050505050919050565b610b68610caf565b60007f800000000000000000000000000000000000000000000000000000000000000090506001836001600681101515610b9e57fe5b6020020151168102836000600681101515610bb557fe5b602002015101600102826000600381101515610bcd57fe5b602002019060001916908160001916815250506001836003600681101515610bf157fe5b6020020151168102836002600681101515610c0857fe5b602002015101600102826001600381101515610c2057fe5b602002019060001916908160001916815250506001836005600681101515610c4457fe5b6020020151168102836004600681101515610c5b57fe5b602002015101600102826002600381101515610c7357fe5b6020020190600019169081600019168152505050919050565b60c060405190810160405280600690602082028038833980820191505090505090565b6060604051908101604052806003906020820280388339808201915050905050905600a165627a7a72305820a95a003d3ac0153e190e6085fe4c5084149fc9a8d843a629fd432ff944b85fc10029",
  "source": "pragma solidity ^0.4.20;\n\nimport \"./NIZK.sol\";\n\ncontract NizkEth {\n\n    bytes32[4] public setupPubKey;\n    mapping(bytes32 => uint) public noteRegistry;\n    bool initialized;\n    uint constant ETH_RATIO = 10000000000000000; // 10^16 wei is smallest note denomination (0.01 eth)\n    uint constant NOTE_MAX = 10000; // 9,999.99 eth is largest possible note\n\n    constructor(bytes32[4] _setupPubKey) public {\n        setupPubKey = _setupPubKey;\n        initialized = true;\n    }\n\n    event SplitTransaction(bytes32[3] inputNote, bytes32[3] outputNoteA, bytes32[3] outputNoteB);\n    event JoinTransaction(bytes32[3] inputNoteA, bytes32[3] inputNoteB, bytes32[3] outputNote);\n    event RedeemTransaction(bytes32[3] note, uint value);\n    event CommitTransaction(bytes32[3] note, uint value);\n\n    function redeemNote(bytes32[6], uint k, bytes32[2]) external returns (bool) {\n        require(initialized);\n        require(k < NOTE_MAX);\n\n        uint v = k * ETH_RATIO;\n        uint[6] memory inputNote;\n        bytes32 noteHash;\n        assembly {\n            let m := inputNote\n            mstore(0x40, add(m, 0xe0))\n            mstore(m, 0x814fba6600000000000000000000000000000000000000000000000000000000)\n            mstore(add(m, 0x04), caller)\n            calldatacopy(add(m, 0x24), 0x04, 0x120)\n            let success := staticcall(not(0), NizkInterfaceLibrary, m, 0x144, m, 0xe0)\n            if or(iszero(success), iszero(eq(mload(m), 0x01))) {\n                mstore(0x00, 400)\n                revert(0x00, 0x20)\n            }\n            inputNote := add(m, 0x20)\n            noteHash := keccak256(inputNote, 0xc0)\n        }\n        require((noteRegistry[noteHash] == 1));\n        noteRegistry[noteHash] = 0;\n\n        emit RedeemTransaction(compressNote(inputNote), v);\n        if (v != 0) {\n            msg.sender.transfer(v);\n        }\n        return true;\n    }\n\n    function commitNote(bytes32[4]) external payable returns (bool) {\n        uint k = msg.value / ETH_RATIO;\n        require(msg.value == (k * ETH_RATIO)); // round numbers only\n        require(k < NOTE_MAX);\n        require(initialized);\n\n        uint[6] memory outputNote;\n        bytes32 noteHash;\n        assembly {\n            let m := outputNote\n            mstore(0x40, add(m, 0xe0))\n            mstore(m, 0x91036ec800000000000000000000000000000000000000000000000000000000)\n            mstore(add(m, 0x04), caller)\n            calldatacopy(add(m, 0x24), 0x04, 0x40)\n            mstore(add(m, 0x64), k)\n            calldatacopy(add(m, 0x84), 0x44, 0x40)\n            let success := staticcall(not(0), NizkInterfaceLibrary, m, 0xc4, m, 0xe0)\n            if or(iszero(success), iszero(eq(mload(m), 0x01))) {\n                mstore(0x00, 400)\n                revert(0x00, 0x20)\n            }\n            outputNote := add(m, 0x20)\n            noteHash := keccak256(outputNote, 0xc0)\n        }\n        require(noteRegistry[noteHash] == 0);\n        noteRegistry[noteHash] = 1;\n        emit CommitTransaction(compressNote(outputNote), msg.value);\n        return true;\n    }\n\n    function joinNotes(bytes32[22]) external returns(bool) {\n        require(initialized);\n        uint[6] memory c1;\n        uint[6] memory c2;\n        uint[6] memory c3;\n        bytes32 c1Hash;\n        bytes32 c2Hash;\n        bytes32 c3Hash;\n        assembly {\n            let m := c1\n            mstore(0x40, add(m, 0x260))\n            mstore(m, 0xacc8cecd00000000000000000000000000000000000000000000000000000000)\n            mstore(add(m, 0x04), caller)\n            calldatacopy(add(m, 0x24), 0x04, 0x2c0)\n            let success := staticcall(not(0), NizkInterfaceLibrary, m, 0x2e4, m, 0x260)\n            if or(iszero(success), iszero(eq(mload(m), 0x01))) {\n                mstore(0x00, 400)\n                revert(0x00, 0x20)\n            }\n            c1 := add(m, 0x20)\n            c2 := add(m, 0xe0)\n            c3 := add(m, 0x1a0)\n            c1Hash := keccak256(c1, 0xc0)\n            c2Hash := keccak256(c2, 0xc0)\n            c3Hash := keccak256(c3, 0xc0)\n        }\n        require(noteRegistry[c1Hash] == 1);\n        require(noteRegistry[c2Hash] == 1);\n        require(noteRegistry[c3Hash] == 0);\n        noteRegistry[c1Hash] = 0;\n        noteRegistry[c2Hash] = 0;\n        noteRegistry[c3Hash] = 1;\n        emit JoinTransaction(compressNote(c1), compressNote(c2), compressNote(c3));\n        return true;\n    }\n\n    function splitNote(bytes32[34]) external returns (bool) {\n        require(initialized);\n        uint[6] memory c1;\n        uint[6] memory c2;\n        uint[6] memory c3;\n        bytes32 c1Hash;\n        bytes32 c2Hash;\n        bytes32 c3Hash;\n        assembly {\n            let m := c1\n            mstore(0x40, add(m, 0x260))\n            mstore(m, 0x75d3464100000000000000000000000000000000000000000000000000000000)\n            mstore(add(m, 0x04), caller)\n            calldatacopy(add(m, 0x24), 0x04, 0x440)\n            mstore(add(m, 0x464), sload(setupPubKey_slot))\n            mstore(add(m, 0x484), sload(add(setupPubKey_slot, 1)))\n            mstore(add(m, 0x4a4), sload(add(setupPubKey_slot, 2)))\n            mstore(add(m, 0x4c4), sload(add(setupPubKey_slot, 3)))\n            let success := staticcall(not(0), NizkInterfaceLibrary, m, 0x4e4, m, 0x260)\n            if or(iszero(success), iszero(eq(mload(m), 0x01))) {\n                mstore(0x00, 400)\n                revert(0x00, 0x20)\n            }\n            c1 := add(m, 0x20)\n            c2 := add(m, 0xe0)\n            c3 := add(m, 0x1a0)\n            c1Hash := keccak256(c1, 0xc0)\n            c2Hash := keccak256(c2, 0xc0)\n            c3Hash := keccak256(c3, 0xc0)\n        }\n        require(noteRegistry[c1Hash] == 1);\n        require(noteRegistry[c2Hash] == 0);\n        require(noteRegistry[c3Hash] == 0);\n        noteRegistry[c1Hash] = 0;\n        noteRegistry[c2Hash] = 1;\n        noteRegistry[c3Hash] = 1;\n        emit SplitTransaction(compressNote(c1), compressNote(c2), compressNote(c3));\n        return true;\n    }\n\n    function compressNote(uint[6] m) internal pure returns (bytes32[3] r) {\n        // broadcast y-coordinate as it's quadratic-residue 1-bit representation\n        // field modulus is 254 bit number; can store y-bit as 256'th bit\n        // NB: we use un-compressed coordinates as inputs because calculating a 254-bit modular exponentiation\n        // is more expensive than the ~2000 gas cost of adding 32 bytes of data to transaction payload\n        uint bitShift = 0x8000000000000000000000000000000000000000000000000000000000000000; //2^256\n        r[0] = bytes32(m[0] + (bitShift * (m[1] & 0x0000000000000000000000000000000000000000000000000000000000000001)));\n        r[1] = bytes32(m[2] + (bitShift * (m[3] & 0x0000000000000000000000000000000000000000000000000000000000000001)));\n        r[2] = bytes32(m[4] + (bitShift * (m[5] & 0x0000000000000000000000000000000000000000000000000000000000000001)));\n    }\n\n    function compressNoteAsm(uint[6] m) internal pure returns (bytes32[3] r) {\n        assembly {\n            let bitShift := 0x8000000000000000000000000000000000000000000000000000000000000000\n            mstore(r, add(mload(m), mul(bitShift, and(mload(add(m, 0x20)), 0x1))))\n            mstore(add(r, 0x20), add(mload(add(m, 0x40)), mul(bitShift, and(mload(add(m, 0x60)), 0x1))))\n            mstore(add(r, 0x40), add(mload(add(m, 0x80)), mul(bitShift, and(mload(add(m, 0xa0)), 0x1))))\n        }\n    }\n}\n",
  "sourcePath": "/mnt/c/Users/zacha/CreditMint/Projects/smart-contracts/contracts/lib/AZTEC/old/NIZKEth.sol",
  "compiler": {
    "name": "solc",
    "version": "0.4.23+commit.124ca40d.Emscripten.clang"
  },
  "schemaVersion": "2.0.0",
  "updatedAt": "2018-08-30T13:02:27.742Z"
}