{
  "contractName": "ParentInterface",
  "abi": [
    {
      "constant": true,
      "inputs": [
        {
          "name": "",
          "type": "address"
        }
      ],
      "name": "hasWhitelistToken",
      "outputs": [
        {
          "name": "",
          "type": "bool"
        }
      ],
      "payable": false,
      "stateMutability": "view",
      "type": "function"
    }
  ],
  "bytecode": "0x608060405234801561001057600080fd5b50610157806100206000396000f300608060405260043610610041576000357c0100000000000000000000000000000000000000000000000000000000900463ffffffff1680634ffaaa0a14610046575b600080fd5b34801561005257600080fd5b5061006d6004803603610068919081019061009e565b610083565b60405161007a91906100d6565b60405180910390f35b6000919050565b600061009682356100fd565b905092915050565b6000602082840312156100b057600080fd5b60006100be8482850161008a565b91505092915050565b6100d0816100f1565b82525050565b60006020820190506100eb60008301846100c7565b92915050565b60008115159050919050565b600073ffffffffffffffffffffffffffffffffffffffff821690509190505600a265627a7a72305820bea502d4b12132ba799536d5d91eb2ca8d0488ac298db8bfaaf2283c941eb0be6c6578706572696d656e74616cf50037",
  "source": "pragma solidity ^0.4.23;\npragma experimental ABIEncoderV2;\n\n/// @title This is a dummy contract used for testing Security.sol.\n/// @dev SecurityTest contains an instance of Security.sol as a dependency.\n/// @dev SecurityTest also contains a registry of whitelisted addresses.\n/// @dev We want to validate, that for any of SecurityTest's methods, the `message sender`.\n/// @dev Has provided a valid ECDSA signature signed by a member of the whitelist.\n\n/// @notice Traditionally, for simple contracts, it is sufficient to check that ```msg.sender``` is part\n/// @notice of a whitelist. However, that prevents other addresses (such as smart contract addresses)\n/// @notice acting as proxies for a member of the whitelist.\n\n/// @notice To give an example, we want decentralized exchange smart contracts to be able to issue/trade\n/// @notice ```notes``` on behalf of a member of our whitelist. ```msg.sender``` in this instance will be\n/// @notice the exchange smart contract, *not* the whitelist member.\n/// @notice By performing validation via ECDSA signatures, whitlist members can effectively nominate the\n/// @notice decentralised exchange smart contract as a proxy, by signing an ECDSA signature whose message\n/// @notice is the address of the proxied smart contract.\n\ncontract ParentInterface {\n    function hasWhitelistToken(address) public view returns(bool) {}\n}\n\ncontract SecurityTest {\n\n    address owner;\n\n    struct ECDSASignature {\n        uint r;\n        uint s;\n        uint8 v;\n    }\n\n    function isWhitelisted(ParentInterface parent, ECDSASignature memory signature) public view returns(bool) {\n        \n    }\n}\n",
  "sourcePath": "/mnt/c/Users/zacha/CreditMint/Projects/smart-contracts/contracts/lib/Security/SecurityTest.sol",
  "compiler": {
    "name": "solc",
    "version": "0.4.23+commit.124ca40d.Emscripten.clang"
  },
  "schemaVersion": "2.0.0",
  "updatedAt": "2018-08-30T13:02:27.721Z"
}