{
  "contractName": "SecurityTest",
  "abi": [
    {
      "constant": true,
      "inputs": [
        {
          "name": "parent",
          "type": "address"
        },
        {
          "components": [
            {
              "name": "r",
              "type": "uint256"
            },
            {
              "name": "s",
              "type": "uint256"
            },
            {
              "name": "v",
              "type": "uint8"
            }
          ],
          "name": "signature",
          "type": "tuple"
        }
      ],
      "name": "isWhitelisted",
      "outputs": [
        {
          "name": "",
          "type": "bool"
        }
      ],
      "payable": false,
      "stateMutability": "view",
      "type": "function"
    }
  ],
  "bytecode": "0x608060405234801561001057600080fd5b50610249806100206000396000f300608060405260043610610041576000357c0100000000000000000000000000000000000000000000000000000000900463ffffffff1680638ff63fd614610046575b600080fd5b34801561005257600080fd5b5061006d60048036036100689190810190610127565b610083565b60405161007a9190610172565b60405180910390f35b600092915050565b600061009782356101e6565b905092915050565b6000606082840312156100b157600080fd5b6100bb606061018d565b905060006100cb848285016100ff565b60008301525060206100df848285016100ff565b60208301525060406100f384828501610113565b60408301525092915050565b600061010b82356101f8565b905092915050565b600061011f8235610202565b905092915050565b6000806080838503121561013a57600080fd5b60006101488582860161008b565b92505060206101598582860161009f565b9150509250929050565b61016c816101da565b82525050565b60006020820190506101876000830184610163565b92915050565b6000604051905081810181811067ffffffffffffffff821117156101b057600080fd5b8060405250919050565b600073ffffffffffffffffffffffffffffffffffffffff82169050919050565b60008115159050919050565b60006101f1826101ba565b9050919050565b6000819050919050565b600060ff821690509190505600a265627a7a72305820623fb18e911cc39c219d953b87d1a6ad113523eb0929d3858a133601a8a227c06c6578706572696d656e74616cf50037",
  "source": "pragma solidity ^0.4.23;\npragma experimental ABIEncoderV2;\n\n/// @title This is a dummy contract used for testing Security.sol.\n/// @dev SecurityTest contains an instance of Security.sol as a dependency.\n/// @dev SecurityTest also contains a registry of whitelisted addresses.\n/// @dev We want to validate, that for any of SecurityTest's methods, the `message sender`.\n/// @dev Has provided a valid ECDSA signature signed by a member of the whitelist.\n\n/// @notice Traditionally, for simple contracts, it is sufficient to check that ```msg.sender``` is part\n/// @notice of a whitelist. However, that prevents other addresses (such as smart contract addresses)\n/// @notice acting as proxies for a member of the whitelist.\n\n/// @notice To give an example, we want decentralized exchange smart contracts to be able to issue/trade\n/// @notice ```notes``` on behalf of a member of our whitelist. ```msg.sender``` in this instance will be\n/// @notice the exchange smart contract, *not* the whitelist member.\n/// @notice By performing validation via ECDSA signatures, whitlist members can effectively nominate the\n/// @notice decentralised exchange smart contract as a proxy, by signing an ECDSA signature whose message\n/// @notice is the address of the proxied smart contract.\n\ncontract ParentInterface {\n    function hasWhitelistToken(address) public view returns(bool) {}\n}\n\ncontract SecurityTest {\n\n    address owner;\n\n    struct ECDSASignature {\n        uint r;\n        uint s;\n        uint8 v;\n    }\n\n    function isWhitelisted(ParentInterface parent, ECDSASignature memory signature) public view returns(bool) {\n        \n    }\n}\n",
  "sourcePath": "/mnt/c/Users/zacha/CreditMint/Projects/smart-contracts/contracts/lib/Security/SecurityTest.sol",
  "compiler": {
    "name": "solc",
    "version": "0.4.23+commit.124ca40d.Emscripten.clang"
  },
  "schemaVersion": "2.0.0",
  "updatedAt": "2018-08-30T13:02:27.722Z"
}