{
  "contractName": "Security",
  "abi": [
    {
      "constant": false,
      "inputs": [
        {
          "name": "parent",
          "type": "address"
        },
        {
          "components": [
            {
              "name": "r",
              "type": "uint256"
            },
            {
              "name": "s",
              "type": "uint256"
            },
            {
              "name": "v",
              "type": "uint8"
            }
          ],
          "name": "signature",
          "type": "tuple"
        }
      ],
      "name": "isWhitelisted",
      "outputs": [],
      "payable": false,
      "stateMutability": "nonpayable",
      "type": "function"
    }
  ],
  "bytecode": "0x608060405234801561001057600080fd5b506101fb806100206000396000f300608060405260043610610041576000357c0100000000000000000000000000000000000000000000000000000000900463ffffffff1680638ff63fd614610046575b600080fd5b34801561005257600080fd5b5061006d6004803603610068919081019061010f565b61006f565b005b5050565b600061007f8235610198565b905092915050565b60006060828403121561009957600080fd5b6100a3606061014b565b905060006100b3848285016100e7565b60008301525060206100c7848285016100e7565b60208301525060406100db848285016100fb565b60408301525092915050565b60006100f382356101aa565b905092915050565b600061010782356101b4565b905092915050565b6000806080838503121561012257600080fd5b600061013085828601610073565b925050602061014185828601610087565b9150509250929050565b6000604051905081810181811067ffffffffffffffff8211171561016e57600080fd5b8060405250919050565b600073ffffffffffffffffffffffffffffffffffffffff82169050919050565b60006101a382610178565b9050919050565b6000819050919050565b600060ff821690509190505600a265627a7a72305820d349f9fdd3778bbb105097032d624e77b3cdeacc651d3f9fdf17ec2c9cdafea66c6578706572696d656e74616cf50037",
  "source": "pragma solidity ^0.4.23;\npragma experimental ABIEncoderV2;\n\n/// @title Library to validate that entities interfacing with our smart contracts are authorized\n/// @dev Security.sol is called from other smart contracts, and is used to validate that an entity calling\n/// @dev functions on the other smart contract is authorized to do so, by checking an ECDSA signature.\n\ncontract ParentInterface {\n    function hasWhitelistToken(address) public view returns(bool) {}\n}\n\ncontract Security {\n\n    address owner;\n\n    struct ECDSASignature {\n        uint r;\n        uint s;\n        uint8 v;\n    }\n    // 'ecdsarecover' can be used, alongside valid signatures,\n    // to validate that the 'order' was consented to by buyer and seller\n    // https://ethereum.stackexchange.com/questions/710/how-can-i-verify-a-cryptographic-signature-that-was-produced-by-an-ethereum-addr\n    /// @param parent : the smart contract that is using SecurityLibrary\n\n    function isWhitelisted(ParentInterface parent, ECDSASignature memory signature) {\n        \n    }\n}\n",
  "sourcePath": "/mnt/c/Users/zacha/CreditMint/Projects/smart-contracts/contracts/lib/Security/Security.sol",
  "compiler": {
    "name": "solc",
    "version": "0.4.23+commit.124ca40d.Emscripten.clang"
  },
  "schemaVersion": "2.0.0",
  "updatedAt": "2018-08-30T13:02:27.721Z"
}