{
  "contractName": "SecurityTest",
  "abi": [
    {
      "constant": true,
      "inputs": [
        {
          "name": "",
          "type": "address"
        }
      ],
      "name": "whitelist",
      "outputs": [
        {
          "name": "",
          "type": "bool"
        }
      ],
      "payable": false,
      "stateMutability": "view",
      "type": "function"
    },
    {
      "inputs": [],
      "payable": false,
      "stateMutability": "nonpayable",
      "type": "constructor"
    },
    {
      "constant": true,
      "inputs": [
        {
          "name": "r",
          "type": "bytes32"
        },
        {
          "name": "s",
          "type": "bytes32"
        },
        {
          "name": "v",
          "type": "uint8"
        }
      ],
      "name": "validateWhitelist",
      "outputs": [
        {
          "name": "",
          "type": "bool"
        }
      ],
      "payable": false,
      "stateMutability": "view",
      "type": "function"
    }
  ],
  "bytecode": "0x608060405234801561001057600080fd5b5060018060003373ffffffffffffffffffffffffffffffffffffffff1673ffffffffffffffffffffffffffffffffffffffff16815260200190815260200160002060006101000a81548160ff021916908315150217905550610348806100776000396000f30060806040526004361061004c576000357c0100000000000000000000000000000000000000000000000000000000900463ffffffff1680639b19251a14610051578063ed20aad7146100ac575b600080fd5b34801561005d57600080fd5b50610092600480360381019080803573ffffffffffffffffffffffffffffffffffffffff169060200190929190505050610110565b604051808215151515815260200191505060405180910390f35b3480156100b857600080fd5b506100f660048036038101908080356000191690602001909291908035600019169060200190929190803560ff169060200190929190505050610130565b604051808215151515815260200191505060405180910390f35b60016020528060005260406000206000915054906101000a900460ff1681565b600061013a6102f1565b60008060606040519081016040528088600019168152602001876000191681526020018660ff168152509250339150610172836101d5565b905060016000610181856101d5565b73ffffffffffffffffffffffffffffffffffffffff1673ffffffffffffffffffffffffffffffffffffffff16815260200190815260200160002060009054906101000a900460ff1693505050509392505050565b60008060003373ffffffffffffffffffffffffffffffffffffffff16600102604051808260001916600019168152602001915050604051809103902060405180807f19457468657265756d205369676e6564204d6573736167653a0a333200000000815250601c01826000191660001916815260200191505060405180910390209150600182856040015186600001518760200151604051600081526020016040526040518085600019166000191681526020018460ff1660ff1681526020018360001916600019168152602001826000191660001916815260200194505050505060206040516020810390808403906000865af11580156102db573d6000803e3d6000fd5b5050506020604051035190508092505050919050565b6060604051908101604052806000801916815260200160008019168152602001600060ff16815250905600a165627a7a723058204add7afa9b3675dd775f8d14e152053a468a0602c27ce4b3f05d2bc00e323c940029",
  "source": "pragma solidity ^0.4.23;\n\n\nimport \"./Security.sol\";\n\n/// @title This is a dummy contract used for testing Security.sol.\n/// @dev SecurityTest contains an instance of Security.sol as a dependency.\n/// @dev SecurityTest also contains a registry of whitelisted addresses.\n/// @dev We want to validate, that for any of SecurityTest's methods, the `message sender`.\n/// @dev Has provided a valid ECDSA signature signed by a member of the whitelist.\n\n/// @notice Traditionally, for simple contracts, it is sufficient to check that ```msg.sender``` is part\n/// @notice of a whitelist. However, that prevents other addresses (such as smart contract addresses)\n/// @notice acting as proxies for a member of the whitelist.\n\n/// @notice To give an example, we want decentralized exchange smart contracts to be able to issue/trade\n/// @notice ```notes``` on behalf of a member of our whitelist. ```msg.sender``` in this instance will be\n/// @notice the exchange smart contract, *not* the whitelist member.\n/// @notice By performing validation via ECDSA signatures, whitlist members can effectively nominate the\n/// @notice decentralised exchange smart contract as a proxy, by signing an ECDSA signature whose message\n/// @notice is the address of the proxied smart contract.\n\ncontract SecurityTest {\n    /// @dev This is sort of like namespacing in C/C++\n    /// @dev All of `Security's` methods are considered part of the `address` type\n    /// @dev variables of `address` type are considered members of the `Security` class\n    /// @dev e.g for `address blah`, we can call `blah::isWhitelisted`\n    using Security for address;\n\n    address owner;\n    /// @dev the 'whitelist' is a map of ethereum addresses to booleans\n    /// @dev Solidity mappings always default to 'false' if the value of a key has not been\n    /// @dev explicitly set.\n    /// @dev so unless an address in the mapping is explicitly set to true, whitelist[address] will return false\n    /// @dev `whitelist` is a *storage* variable. Changes to it are permanent and therefore expensive in terms of gas\n    /// @notice making `whitelist` *public* causes the compiler to create a helper function `whitelist(address key)` that takes in an address\n    /// @notice key and returns the bool value\n    mapping(address => bool) public whitelist;\n\n    /// @dev as a simple test, let's only add one address to the whitelist; the address that created this smart contract\n    constructor() public {\n        whitelist[msg.sender] = true;\n    }\n\n    /// @dev this is the function our test will call\n    function validateWhitelist(bytes32 r, bytes32 s, uint8 v) public view returns(bool) {\n        // Structs and arrays, unlike other variable types, are stored in memory and not on the stack.\n        // The actual variable `signature` is a reference to the memory location that holds the struct data\n        // We declare `signature` to be a memory pointer, the default declaration is to be a storage pointer\n        // which is bad in this case! Storage variables cost 20,000 gas to write to because storage variables need to be written\n        // into the Ethereum blockchain's state tree. Memory variables aren't permanent and cost about 6 gas to write to.\n        Security.ECDSASignature memory signature = Security.ECDSASignature(r, s, v);\n        address sender = address(msg.sender);\n        address sig = Security.getSignatureAddress(signature);\n        return whitelist[Security.getSignatureAddress(signature)];\n    }\n}\n",
  "sourcePath": "/mnt/c/Users/zacha/CreditMint/Projects/smart-contracts/contracts/lib/Security/SecurityTest.sol",
  "compiler": {
    "name": "solc",
    "version": "0.4.23+commit.124ca40d.Emscripten.clang"
  },
  "schemaVersion": "2.0.0",
  "updatedAt": "2018-09-01T11:10:37.563Z"
}